{
  "contractName": "SimpleStorage",
  "abi": [
    {
      "anonymous": false,
      "inputs": [
        {
          "indexed": false,
          "internalType": "string",
          "name": "str",
          "type": "string"
        },
        {
          "indexed": false,
          "internalType": "uint256",
          "name": "x",
          "type": "uint256"
        }
      ],
      "name": "numberCast",
      "type": "event"
    },
    {
      "constant": false,
      "inputs": [
        {
          "internalType": "uint256",
          "name": "x",
          "type": "uint256"
        }
      ],
      "name": "set",
      "outputs": [],
      "payable": false,
      "stateMutability": "nonpayable",
      "type": "function"
    },
    {
      "constant": false,
      "inputs": [],
      "name": "get",
      "outputs": [
        {
          "internalType": "uint256",
          "name": "",
          "type": "uint256"
        }
      ],
      "payable": false,
      "stateMutability": "nonpayable",
      "type": "function"
    },
    {
      "constant": false,
      "inputs": [],
      "name": "test",
      "outputs": [
        {
          "internalType": "string",
          "name": "",
          "type": "string"
        }
      ],
      "payable": false,
      "stateMutability": "nonpayable",
      "type": "function"
    }
  ],
  "bytecode": "0x608060405234801561001057600080fd5b506102ab806100206000396000f3fe608060405234801561001057600080fd5b50600436106100415760003560e01c806360fe47b1146100465780636d4ce63c14610074578063f8a8fd6d14610092575b600080fd5b6100726004803603602081101561005c57600080fd5b8101908080359060200190929190505050610115565b005b61007c610172565b6040518082815260200191505060405180910390f35b61009a6101d1565b6040518080602001828103825283818151815260200191508051906020019080838360005b838110156100da5780820151818401526020810190506100bf565b50505050905090810190601f1680156101075780820380516001836020036101000a031916815260200191505b509250505060405180910390f35b7f8aeb49dbc1c785aad4def194370ae866b436cdf4813bcaf36191405d0e201c0c81604051808060200183815260200182810382526034815260200180610243603491396040019250505060405180910390a18060008190555050565b60007f8aeb49dbc1c785aad4def194370ae866b436cdf4813bcaf36191405d0e201c0c60005460405180806020018381526020018281038252603481526020018061020f603491396040019250505060405180910390a1600054905090565b60606040518060400160405280600e81526020017f7465737420636f6d706c6574656400000000000000000000000000000000000081525090509056fe43616c6c6564206765742066756e6374696f6e20696e2053696d706c6553746f726167652e736f6c20776974682076616c75653a43616c6c6564205365742066756e6374696f6e20696e2053696d706c6553746f726167652e736f6c20776974682076616c75653aa265627a7a72315820a4e2a5bf5822a8c182158fb0040737b5a66428cb087b88d11e02da93bef1e31664736f6c63430005100032",
  "source": "pragma solidity >=0.4.21 <0.7.0;\r\n\r\ncontract SimpleStorage {\r\n  uint storedData;\r\n\r\n  function set(uint x) public  {\r\n    emit numberCast('Called Set function in SimpleStorage.sol with value:', x);\r\n    storedData = x;\r\n  }\r\n\r\n  function get() public returns (uint)  {\r\n    emit numberCast('Called get function in SimpleStorage.sol with value:', storedData);\r\n    return storedData;\r\n  }\r\n\r\n  function test() public returns (string memory) {\r\n    return \"test completed\";\r\n  }\r\n\r\n  event numberCast(string str, uint x);\r\n\r\n}\r\n",
  "sourcePath": "C:\\Users\\Johan\\WebstormProjects\\ether-viz\\EtherVizApp\\contracts\\SimpleStorage.sol",
  "compiler": {
    "name": "solc",
    "version": "0.5.16+commit.9c3226ce.Emscripten.clang"
  },
  "schemaVersion": "3.2.0",
  "updatedAt": "2020-05-30T14:35:38.133Z",
  "networkType": "ethereum",
  "devdoc": {
    "methods": {}
  },
  "userdoc": {
    "methods": {}
  }
}