{
  "contractName": "SimpleStorage",
  "abi": [
    {
      "constant": false,
      "inputs": [
        {
          "internalType": "uint256",
          "name": "x",
          "type": "uint256"
        }
      ],
      "name": "set",
      "outputs": [],
      "payable": false,
      "stateMutability": "nonpayable",
      "type": "function"
    },
    {
      "constant": false,
      "inputs": [],
      "name": "get",
      "outputs": [
        {
          "internalType": "uint256",
          "name": "",
          "type": "uint256"
        }
      ],
      "payable": false,
      "stateMutability": "nonpayable",
      "type": "function"
    },
    {
      "constant": false,
      "inputs": [],
      "name": "test",
      "outputs": [
        {
          "internalType": "string",
          "name": "",
          "type": "string"
        }
      ],
      "payable": false,
      "stateMutability": "nonpayable",
      "type": "function"
    }
  ],
  "bytecode": "0x608060405234801561001057600080fd5b5061019a806100206000396000f3fe608060405234801561001057600080fd5b50600436106100415760003560e01c806360fe47b1146100465780636d4ce63c14610074578063f8a8fd6d14610092575b600080fd5b6100726004803603602081101561005c57600080fd5b8101908080359060200190929190505050610115565b005b61007c61011f565b6040518082815260200191505060405180910390f35b61009a610128565b6040518080602001828103825283818151815260200191508051906020019080838360005b838110156100da5780820151818401526020810190506100bf565b50505050905090810190601f1680156101075780820380516001836020036101000a031916815260200191505b509250505060405180910390f35b8060008190555050565b60008054905090565b60606040518060400160405280600e81526020017f7465737420636f6d706c6574656400000000000000000000000000000000000081525090509056fea265627a7a723158205f945f9893c456b7d9839f07b08923ac5cd2c818b5ec01688281e80fbf0a6d6464736f6c63430005100032",
  "source": "pragma solidity >=0.4.21 <0.7.0;\n\ncontract SimpleStorage {\n  uint storedData;\n\n  function set(uint x) public  {\n    storedData = x;\n  }\n\n  function get() public returns (uint)  {\n    return storedData;\n  }\n\n  function test() public returns (string memory) {\n    return \"test completed\";\n  }\n  }",
  "sourcePath": "/Users/niklas.kriesel/Documents/Studium/Integrationsseminar/EtherVizApp/contracts/SimpleStorage.sol",
  "compiler": {
    "name": "solc",
    "version": "0.5.16+commit.9c3226ce.Emscripten.clang"
  },
  "schemaVersion": "3.1.0",
  "updatedAt": "2020-06-05T07:59:37.073Z",
  "networkType": "ethereum",
  "devdoc": {
    "methods": {}
  },
  "userdoc": {
    "methods": {}
  }
}